:100000000C943B000C9457030C9483030C94AF03A3
:100010000C9458000C9458000C9458000C94B5089B
:100020000C9458000C9458000C940C050C94580037
:100030000C9458000C94F7070C9458000C9458003A
:100040000C9458000C9458000C9458000C945800D0
:100050000C9458005653202020202020202041506E
:1000600020202020002020202020202020202F20A1
:1000700020202020200011241FBECFE5D8E0DEBFC5
:10008000CDBF10E0A0E6B0E0E6E2F9E102C00590E5
:100090000D92AC38B107D9F710E0ACE8B0E001C080
:1000A0001D92A83FB107E1F70E94A60A0C94910C9B
:1000B0000C940000CF93DF931F92CDB7DEB70E9460
:1000C000B102882309F467C00E944903811163C00B
:1000D00081E090E09093BC008093BB000E942B02D3
:1000E000863009F440C028F4813019F1823039F0AB
:1000F00052C0873009F442C08A3019F14CC01982CD
:10010000CE0101960E943D02882309F444C08981F2
:10011000853009F040C00E94130283E00E94310242
:100120008EE10E9458020E94200381E08093A1008A
:1001300032C08091A100882371F10E94130281E0F6
:1001400026C08091A300882331F10E9437028130BC
:1001500011F5CE0101960E943D028823E1F08981CC
:100160008093A20018C08091A1008823A1F081E0B3
:100170008093A3000E9413028CE009C08091A1002B
:10018000882349F01092A3000E9413028DE00E9480
:1001900031020E9420038091A1008823C9F180913F
:1001A000B9009091BA008536910508F181E090E0A0
:1001B0009093BA008093B9000E94130285E00E94D8
:1001C00031020E949F080E9458020E949C080E94CF
:1001D00058028091A2000E9458028091A3000E94C0
:1001E00058020E9489080E9496020E942003809172
:1001F000BB009091BC00853C994050F01092A30048
:100200001092A10081E090E09093BC008093BB002D
:100210000F90DF91CF9108950E9489086AE070E005
:100220000E94BB0A4091A20024E6429FC001112413
:100230009C0124503109621773075CF004968617FD
:1002400097073CF0469581E001C0880F4A95EAF790
:1002500001C080E00C94A90443E06DE080E00E94BE
:1002600024076DE080E00E9433060E949C088130E4
:1002700019F48FE690E002C083E790E00E94B20696
:1002800046E063E080E00E94240763E080E00E9493
:1002900033060E949F08813019F487E790E002C07E
:1002A0008EE790E00E94B20642E060E081E00E94AA
:1002B000240760E081E00E9433068091A300882338
:1002C00019F085E890E002C088E890E00E94B2064C
:1002D00045E063E081E00E94240763E081E00E9442
:1002E00033060E9489086AE00E94BE0645E06BE082
:1002F00081E00E9424076BE081E00E943306209198
:10030000A2006AE088EE93E0AC01249FC001259F23
:10031000900D11240C94BE060E9431070E943A06EB
:1003200080E00E94A90465E670E084E590E00E9408
:1003300096060E941F0A0E941B02E8EBF0E08081F3
:10034000816080838081826080831092A3001092FC
:10035000A20008950E94B4010E940C010E945A005C
:100360000E94C3010C942C018091A30081110AC04A
:100370000E94B2049FEF980F943020F4880F8250AF
:100380008093A2000895CF93DF932091A20088EE7E
:1003900093E0289FE001299FD00D11240E94890835
:1003A0009E012E5C3F4F2817390728F480E00E94F9
:1003B000C00981E00CC0209731F0E2978C179D07AF
:1003C00010F481E001C080E00E94C00980E0DF916C
:1003D000CF910C940B0ACF93DF93E091A400F0919E
:1003E000A50083818823B9F020E030E040E050E0B0
:1003F000BA01A82FB0E02A173B075CF4EF01C20F47
:10040000D31F9D81490F511D611D711D2F5F3F4FEE
:10041000F2CF842703C080E090E0DC012281820FCC
:10042000DF91CF910895E091A400F091A50010A272
:1004300013821282089583E290E00E942A0BFC014D
:100440009093A5008093A40086EE808389EC81833D
:10045000178E0C941302E091A400F091A500828104
:100460000895E091A400F091A50082830895E091A1
:10047000A400F091A50083810895E091A400F0917B
:10048000A50020A130E0438150E02417350774F423
:10049000E20FF31F2581FC012083E091A400F0917D
:1004A000A50080A18F5F80A381E0089580E008957A
:1004B000E091A400F091A50090A1292F30E02A310D
:1004C00031056CF4DF01A20FB31F15968C9381E008
:1004D000890F80A39381981720F4838302C080E062
:1004E000089581E00895E091A400F091A500A0A1F5
:1004F000B0E0AD014E5F5F4F238130E02417350738
:100500009CF0AE0FBF1F16962C91169730E0322F3D
:10051000222715964C91242BDC012D933C9380A12E
:100520008E5F80A381E0089580E00895E091A400AB
:10053000F091A50090A1292F30E0293131056CF40C
:10054000DF01A20FB31F15968C9382E0890F80A361
:100550009381981720F4838302C080E0089581E09E
:100560000895FF920F931F93CF93DF930E94730818
:10057000853010F480E05EC00E942E08863ED1F7E0
:100580000E942E08893CB1F70E941302C091A4007A
:10059000D091A5000E942E088A83C091A400D0911A
:1005A000A5000E942E088B83C091A400D091A500C5
:1005B0008B818B3110F08AE18B830E942E088C8313
:1005C0000E947308E091A400F091A500938189171F
:1005D00018F000E010E011C089E190E00E94DD0514
:1005E0000E947308E091A400F091A50093818917FF
:1005F00080F781E082A385E01DC0C091A400D09166
:10060000A500FB802F2D30E00217130744F40E9451
:100610002E08C00FD11F8D830F5F1F4FEECF0E949A
:10062000EB0189A391E02C81281301C090E09AA3EB
:1006300085E08F0DDF91CF911F910F91FF9008956D
:100640000F931F93CF93DF93C091A400D091A50087
:100650000B8110E00B5F1F4F0E94EB018C83C0E009
:10066000D0E0E091A400F091A500EC0FFD1F808187
:100670000E945E072196C017D1079CF3E091A40069
:10068000F091A50083818B5FDF91CF911F910F9136
:100690000895E091A400F091A50082A10895089525
:1006A00008950895909365008093640008951F92C3
:1006B0000F920FB60F9211242F933F934F935F9396
:1006C0006F937F938F939F93AF93BF93EF93FF931A
:1006D000E0916400F09165000995FF91EF91BF9161
:1006E000AF919F918F917F916F915F914F913F91CA
:1006F0002F910F900FBE0F901F901895909363004D
:100700008093620008951F920F920FB60F921124EA
:100710002F933F934F935F936F937F938F939F9309
:10072000AF93BF93EF93FF93E0916200F09163006A
:100730000995FF91EF91BF91AF919F918F917F911B
:100740006F915F914F913F912F910F900FBE0F903E
:100750001F901895909361008093600008951F92F8
:100760000F920FB60F9211242F933F934F935F93E5
:100770006F937F938F939F93AF93BF93EF93FF9369
:10078000E0916000F09161000995FF91EF91BF91B8
:10079000AF919F918F917F916F915F914F913F9119
:1007A0002F910F900FBE0F901F90189536990AC089
:1007B000806487B986ED86B93699FECF349A84B1C4
:1007C00095B1089580E090E008958FB9779BFECFB2
:1007D00008958FEF0E94E5038FB10895CF93DF93C3
:1007E0000E94E903C82FD0E0DC2FCC270E94E90348
:1007F0009E01282BC901DF91CF910895CF93C82F77
:10080000892F0E94E5038C2FCF910C94E503282FAC
:10081000FC018E2F821B861728F481918FB9779B5C
:10082000FECFF7CF0895282FFC019FEF8E2F821B5C
:10083000861730F49FB9779BFECF8FB18193F6CFA7
:100840000895CF93DF93EC01C09883E00E94E50305
:10085000CE010E94FE030E94E903C09ADF91CF916E
:100860000895EF92FF920F931F93CF93DF931F9200
:10087000CDB7DEB77C018B01C09883E049830E942D
:10088000E503C7010E94FE034981642FC8010E944D
:100890001304C09A0F90DF91CF911F910F91FF9099
:1008A000EF900895C09886E00E94E503C09A0895ED
:1008B000C09884E00E94E503C09A0895C09885E03E
:1008C0000E94E5030E94E903C09A08951F93CF9305
:1008D000DF93EC01162F0E945E0480FDFCCF0E9486
:1008E0005204C09882E00E94E503CE010E94FE03FC
:1008F000812F0E94E503C09ADF91CF911F91089547
:10090000FF920F931F93CF93DF93EC018B01F42E93
:100910000E945E0480FDFCCF0E945204C09882E0D9
:100920000E94E503CE010E94FE036F2DC8010E94C4
:100930000704C09ADF91CF911F910F91FF90089506
:100940008091C9000E94E503949A000000009498E9
:1009500008958F709091C900907F982B9093C90053
:100960000C94A004CF93DF9381E00E94D603EC01A6
:10097000CC3F83E0D80788F400000000000081E04D
:100980000E94D603C80FD91FD695C795C233D1058B
:1009900088F0C43482E0D80778F0CC3B82E0D807F6
:1009A00068F0C63183E0D80758F0CE33D34050F416
:1009B00085E009C081E007C082E005C083E003C094
:1009C00084E001C080E0DF91CF91089580918D0097
:1009D000882339F00E94B204811108C010928D0062
:1009E00008950E94B20480938D00089580E00895D8
:1009F000CF93C0918C00CC2341F00E94B2048111AE
:100A000008C010928C008C2F05C00E94B204809305
:100A10008C0080E0CF9108951F920F920FB60F9235
:100A200011248F939F9380919F009091A000019635
:100A30009093A00080939F008091CA008F5F809365
:100A4000CA008091CB0091E0980F9093CB008A3040
:100A500008F484C08091B80080FF09C08091B9007B
:100A60009091BA0001969093BA008093B90080915A
:100A7000B80081FF09C08091BB009091BC00019635
:100A80009093BC008093BB008091B80082FF09C0A6
:100A90008091BD009091BE0001969093BE0080931E
:100AA000BD008091B80083FF09C08091BF00909184
:100AB000C00001969093C0008093BF008091B80061
:100AC00084FF09C08091C1009091C200019690936B
:100AD000C2008093C1008091B80085FF09C0809159
:100AE000C3009091C40001969093C4008093C3000A
:100AF0008091B80086FF09C08091C5009091C60022
:100B000001969093C6008093C5008091B80087FF3E
:100B100009C08091C7009091C80001969093C800C9
:100B20008093C7008091A60080FF16C08091CC0002
:100B30009091CD00892B39F415BC8091A6008E7F51
:100B40008093A60009C08091CC009091CD000197C0
:100B50009093CD008093CC001092CB009F918F9109
:100B60000F900FBE0F901F9018959091A600916066
:100B70009093A6007093CD006093CC00809583BDC8
:100B80008EE185BD08959091A6009E7F9093A6006A
:100B9000982F909593BD882319F08EE185BD089517
:100BA00015BC08951092CA0090E001962091CA00E9
:100BB00030E082179307D4F70895CF93DF93EC01C9
:100BC000209729F08AE00E94D2052197F9CFDF9182
:100BD000CF910895D09AD89881E090E00E94DD05E9
:100BE000D0980895CF93DF9300D0CDB7DEB780E0E3
:100BF0000E94D6038530910530F089839A830E9444
:100C0000EA059A8189810F900F90DF91CF91089525
:100C1000019710F00000FCCF08958295807F90919D
:100C2000C9009F70982B9093C9000E94A004C49A99
:100C300082E390E00E940806C4980895CF93C82FDD
:100C400082958F700E940D068C2F0E940D0686E9FA
:100C500090E0CF910C940806C3980E941E0686E986
:100C600090E00C9408066068813009F4605C862F7F
:100C70000C942C0683E00E940D0680E596E40E9409
:100C8000080683E00E940D068CE795E10E940806A5
:100C900083E00E940D068CE795E10E94080682E041
:100CA0000E940D068CE795E10E94080688E20E94EA
:100CB0002C068CE795E10E94080688E00E942C062D
:100CC0008CE795E10E94080681E00E942C068CE7E3
:100CD00095E10E94080682E00E942C068CE795E1CF
:100CE0000E9408068CE00E942C068CE795E10C948B
:100CF000080681E00E942C068CE795E10C9408061A
:100D0000C39A0E941E0682E390E00C940806CF93DB
:100D1000DF93FC018491EF012196882321F00E944A
:100D20008006FE01F7CFDF91CF9108950F931F93B7
:100D3000CF93DF9300D0CDB7DEB78B0189839A8341
:100D40000E94790689819A810E94870680EC0E9420
:100D50002C06C8010F900F90DF91CF911F910F913A
:100D60000C948706CF93DF93EC018991882319F0C7
:100D70000E948006FACFDF91CF910895462F50E070
:100D800067EA70E00E94510C87EA90E00C94B2068A
:100D90000F931F93CF93DF931F92CDB7DEB78C01D4
:100DA000040F111DF80181918F01882341F0662302
:100DB00031F069830E94800669816150F3CF0F9002
:100DC000DF91CF911F910F910895EF92FF920F93B2
:100DD0001F93CF93DF93CDB7DEB761970FB6F8942B
:100DE000DEBF0FBECDBFE42E462F50E08E010F5F59
:100DF0001F4FB8010E94510CF80101900020E9F743
:100E00003197E01BF10BFE2CFE1A1F1454F4FA94D8
:100E100080E30E948006F110FACFC8010E94B2065A
:100E200006C04F2D41956E2DC8010E94C8066196DF
:100E30000FB6F894DEBF0FBECDBFDF91CF911F91EB
:100E40000F91FF90EF900895CF93C42F0E94330627
:100E5000CC2329F080E20E948006C150F9CFCF91C7
:100E600008951BBA87E088BB8CEF85BB81E682BB07
:100E70001ABA8BEB87BB14BA82E981BBF89410BC19
:100E800089E189B91BB886E880BD88E98AB917B8B5
:100E900086E186B910BE8FE085BF1BBE14BE8AE016
:100EA00083BF87EC8CBF15BC8FEF83BD82E089BF09
:100EB00080E58DB981E08EB9789408955D9BFECF71
:100EC0008CB90895CF93DF93EC018991882319F0B1
:100ED0000E945E07FACFDF91CF910895CF93DF9301
:100EE000FC018491EF012196882321F00E945E0786
:100EF000FE01F7CFDF91CF9108950F931F93CF930A
:100F0000DF931F92CDB7DEB78C01040F111DF801DE
:100F100081918F01882341F0662331F069830E941B
:100F20005E0769816150F3CF0F90DF91CF911F91E0
:100F30000F910895CF93DF93CDB7DEB761970FB6CA
:100F4000F894DEBF0FBECDBF462F50E0BE016F5FED
:100F50007F4F0E94510CCE0101960E94620761965C
:100F60000FB6F894DEBF0FBECDBFDF91CF910895CD
:100F7000EF92FF920F931F93CF93DF93CDB7DEB71E
:100F800061970FB6F894DEBF0FBECDBFE42E462F9B
:100F900050E08E010F5F1F4FB8010E94510CF80105
:100FA00001900020E9F73197E01BF10BFE2CFE1AAF
:100FB0001F1454F4FA9480E30E945E07F110FACFF4
:100FC000C8010E94620706C04F2D41956E2DC801D1
:100FD0000E947D0761960FB6F894DEBF0FBECDBFAD
:100FE000DF91CF911F910F91FF90EF9008951F9285
:100FF0000F920FB60F9211242F938F939F93EF931D
:10100000FF9390918E0080918F00292F281B203212
:10101000A8F4E091900081E08E0F80939000F0E0C2
:101020002CB1E153FF4F20839F5F90938E0081325C
:1010300010F0109290001092CE0006C08CB18093F8
:10104000930081E08093CE00FF91EF919F918F916B
:101050002F910F900FBE0F901F9018951092CE00F9
:1010600080918F0090918E009817A1F08F5F8093F0
:101070008F0080919100813210F010929100E091E8
:10108000910081E08E0F80939100F0E0E153FF4FDB
:101090008081089580E008951092CE0020E0409174
:1010A0008F0030918E00341B3617D8F04F5F40937D
:1010B0008F0031E0320FE091910041E04E0F4093FC
:1010C0009100F0E0E153FF4F4081FC01E20FF11D80
:1010D000408320919100213210F010929100232F33
:1010E000DECF822F089580918E0090918F00891B12
:1010F000089557988CB180939200109291001092AD
:10110000900010928F0010928E001092CE00579A8D
:10111000089560919400709195008091960090914F
:10112000970028EE33E040E050E00E94CF0AC9016A
:10113000089588E293E2089580919800089580913F
:101140006600089584E893E008956091F20070913C
:10115000F300882777FD8095982F2AE030E040E063
:1011600050E00E94CF0AC90108951F920F920FB656
:101170000F921124EF92FF920F931F932F933F939F
:101180004F935F936F937F938F939F93AF93BF938F
:10119000EF93FF9380916600813099F46091940001
:1011A00070919500809196009091970028E13CEF16
:1011B0004FEF5FEF0E94CF0A3093F3002093F200CD
:1011C00004C01092F3001092F200809198008130D8
:1011D00009F054C080919D0090919E00892B99F157
:1011E0002091940030919500409196005091970085
:1011F00060919D0070919E0090E4E92E94E5F92E97
:1012000099E8092F112DE21AF30A040B150B80E05F
:1012100090E028EE33E040E050E00E94AB0A9B01F2
:10122000AC01C801B7010E94CF0A3093F1002093AE
:10123000F00080919D0090919E00019790939E00F8
:1012400080939D0066C0209194003091950040915C
:1012500096005091970060E474E589E890E0621B85
:10126000730B840B950B28EE33E040E050E00E94B6
:10127000CF0A3093F1002093F0004BC080919B0087
:1012800090919C00892BD9F1209194003091950088
:1012900040919600509197006091990070919A004A
:1012A000E0919B00F0919C0080E4E82E84E5F82E0C
:1012B00089E8082F112DE21AF30A040B150B6F5F52
:1012C0007F4F6E1B7F0B80E090E028EE33E040E024
:1012D00050E00E94AB0A9B01AC01C801B7010E941B
:1012E000CF0A3093F1002093F00080919B00909101
:1012F0009C00019790939C0080939B000AC01092E1
:10130000F1001092F00080E00E94880A81E00E94C3
:101310008E0A4091940050919500609196007091D2
:1013200097002091F0003091F1008091F2009091AF
:10133000F300820F931FAA2797FDA095BA2F840F61
:10134000951FA61FB71F8093940090939500A093BC
:101350009600B0939700FF91EF91BF91AF919F914D
:101360008F917F916F915F914F913F912F911F913D
:101370000F91FF90EF900F900FBE0F901F90189558
:101380001F93182F809198008823D1F41130C1F455
:101390001093980020919B0030919C008EE190E08A
:1013A000821B930B90939E0080939D0010929C0053
:1013B00010929B0081E00E94880A80E00E948E0AC1
:1013C00080919800813029F5112319F51092980029
:1013D00020919D0030919E008EE190E0AC01421B77
:1013E000530B50939A004093990020919D003091A7
:1013F0009E00821B930B90939C0080939B00109205
:101400009E0010929D0081E00E94880A81E00E9467
:101410008E0A1F91089580936600813039F480E030
:101420000E949A0A81E00E94940A0895882331F468
:1014300081E00E949A0A80E00E94940A0895109226
:1014400094001092950010929600109297001092BE
:10145000980081E0809366001092F1001092F000F5
:101460001092F3001092F2000E944E0A0E94820A2B
:1014700081E00E948E0A81E00E94940AF8941FBCC9
:1014800088E08EBD8EB583608EBD83EC99E09BBDF8
:101490008ABD89B7806189BF7894089581B38066D9
:1014A00081BB84B38C6184BB84B38F7184BB85B3EF
:1014B000806E85BB82B38F7982BB85B3837E85BB0B
:1014C000089583B390E080959095880F892F881FA9
:1014D000990B91958170089583B390E080959095D4
:1014E00035E0969587953A95E1F78170089583B335
:1014F00090E08095909546E0969587954A95E1F71E
:101500008170089595989698AA98AB98AC9808958C
:10151000813011F4959A089595980895813011F4C9
:10152000969A089596980895813011F4AA9A08958C
:10153000AA980895813011F4AC9A0895AC98089552
:10154000813011F4AB9A0895AB9808950E948C01F4
:101550000E94AA01FDCFDB018F939F930E94EE0AA8
:10156000BF91AF91A29F800D911DA39F900DB29F3F
:10157000900D11240895AA1BBB1B51E107C0AA1F9F
:10158000BB1FA617B70710F0A61BB70B881F991F24
:101590005A95A9F780959095BC01CD010895052E27
:1015A00097FB1EF400940E94E60A57FD07D00E94A4
:1015B000F90A07FC03D04EF40C94E60A50954095C6
:1015C000309521953F4F4F4F5F4F089590958095EF
:1015D000709561957F4F8F4F9F4F08950E941B0B11
:1015E000A59F900DB49F900DA49F800D911D112477
:1015F0000895A1E21A2EAA1BBB1BFD010DC0AA1F54
:10160000BB1FEE1FFF1FA217B307E407F50720F06B
:10161000A21BB30BE40BF50B661F771F881F991FE6
:101620001A9469F760957095809590959B01AC012F
:10163000BD01CF010895A29FB001B39FC001A39F38
:10164000700D811D1124911DB29F700D811D1124FB
:10165000911D0895CF93DF938230910510F482E0BD
:1016600090E0E091F600F091F70020E030E0A0E09B
:10167000B0E0309739F14081518148175907B8F0EF
:101680004817590771F482819381109729F01396B6
:101690009C938E9312972CC09093F7008093F60042
:1016A00027C02115310531F04217530718F0A90161
:1016B000DB0101C0EF019A01BD01DF010280F3816E
:1016C000E02DD7CF21153105F9F0281B390B243037
:1016D000310580F48A819B816115710521F0FB0140
:1016E0009383828304C09093F7008093F600FE01F9
:1016F000329644C0FE01E20FF31F81939193225072
:101700003109398328833AC02091F4003091F500E3
:10171000232B41F420916B0030916C003093F50045
:101720002093F4002091690030916A002115310561
:1017300041F42DB73EB740916D0050916E00241BCF
:10174000350BE091F400F091F500E217F307A0F4F7
:101750002E1B3F0B2817390778F0AC014E5F5F4F07
:101760002417350748F04E0F5F1F5093F500409344
:10177000F4008193919302C0E0E0F0E0CF01DF91AB
:10178000CF910895CF93DF93009709F487C0FC01B0
:10179000329713821282C091F600D091F700209701
:1017A00081F420813181280F391F8091F4009091BC
:1017B000F5008217930779F5F093F500E093F400B4
:1017C0006DC0DE0120E030E0AE17BF0750F4129686
:1017D0004D915C9113979D014115510509F1DA0175
:1017E000F3CFB383A28340815181840F951F8A1761
:1017F0009B0771F48D919C911197840F951F029610
:101800009183808312968D919C9113979383828309
:101810002115310529F4F093F700E093F6003EC05E
:10182000D9011396FC93EE9312974D915D91A40FFD
:10183000B51FEA17FB0779F480819181840F951F0A
:101840000296D90111969C938E938281938113966F
:101850009C938E931297E0E0F0E08A819B81009741
:1018600019F0FE01EC01F9CFCE01029628813981F1
:10187000820F931F2091F4003091F500281739074B
:1018800069F4309729F41092F7001092F60002C024
:1018900013821282D093F500C093F400DF91CF91B0
:1018A00008954532510520F4423010F00C945C0C40
:1018B000FB011082CB010895BB274A3031F49923F4
:1018C00022F4BDE2909581959F4F0C94680CBB2744
:1018D000FB015527AA27880F991FAA1FA41710F0EC
:1018E000A41B83955051B9F7A05DAA3308F0A95DF8
:1018F000A193009779F7B111B1931192CB010C9498
:10190000810CDC01FC01672F71917723E1F732979D
:1019100004C07C916D9370836291AE17BF07C8F3CA
:061920000895F894FFCFCA
:10192600510350034F030101010000F80020004F4E
:101936004E20004F4646004F50454E202000434C57
:0C1946004F534544005953004E4F000021
:00000001FF
